:020000040800F2
:10000000C006002089010008851200087D12000842
:1000100081120008450200089D120008000000003F
:100020000000000000000000000000009112000825
:1000300049020008000000008D1200089512000817
:10004000A3010008A3010008A3010008A301000800
:10005000A3010008A3010008A3010008A3010008F0
:10006000A3010008A3010008A3010008A3010008E0
:10007000A3010008A3010008A3010008A3010008D0
:10008000A3010008A3010008A3010008A3010008C0
:10009000A3010008A3010008A3010008A3010008B0
:1000A000A3010008A3010008A3010008A3010008A0
:1000B000A3010008A3010008A3010008A301000890
:1000C000A3010008A3010008A3010008A301000880
:1000D000A3010008A3010008A3010008A301000870
:1000E000A3010008A3010008A301000800F002F822
:1000F00000F03AF80AA090E8000C82448344AAF188
:100100000107DA4501D100F02FF8AFF2090EBAE885
:100110000F0013F0010F18BFFB1A43F0010318473B
:100120006413000084130000103A24BF78C878C11B
:10013000FAD8520724BF30C830C144BF04680C60ED
:10014000704700000023002400250026103A28BF35
:1001500078C1FBD8520728BF30C148BF0B60704739
:100160001FB51FBD10B510BD00F03DF81146FFF7DB
:10017000F7FF01F095F800F05BF803B4FFF7F2FF2A
:1001800003BC00F025F800000948804709480047F3
:10019000FEE7FEE7FEE7FEE7FEE7FEE7FEE7FEE737
:1001A000FEE7FEE704480549054A064B7047000094
:1001B00099120008ED000008C0000020C0060020D1
:1001C000C0020020C0020020704770477047000046
:1001D00001491820ABBEFEE7260002000048704728
:1001E0001000002070477546FFF7F8FFAE46050087
:1001F0006946534620F00700854618B020B5FFF742
:10020000D1FFBDE820404FF000064FF000074FF04F
:1002100000084FF0000BAC46ACE8C009ACE8C009E0
:10022000ACE8C009ACE8C00921F007018D46704771
:1002300010B50446AFF300802046BDE81040FFF73C
:100240009CBF0000FEE70000704700002DE9F04F62
:1002500082B00E68002E00F0038140F20C4C41F297
:1002600000424FF6FF7EC4F2010CC4F201020427E3
:1002700000240123C1F2100E4FF0000A4FF00009D4
:10028000904208BF0327009745E000BF012704F014
:100290000C030F229A402BEA020207FA03F34FEAFB
:1002A0009A051A4346F82520D1F804B040F20045DB
:1002B000C4F201055FEACB322A6854BF22EA080281
:1002C00042EA08022A606A685FEA8B3354BF22EA76
:1002D000080242EA08026A605FEACB23AA6854BFB8
:1002E00022EA080242EA08025FEA8B23AA60DCF8ED
:1002F00000204FF0010354BF22EA080242EA08023C
:10030000CCF800200E680AF1010A36FA0AF204F16C
:10031000040400F0A58003FA0AF816EA080FF1D0E9
:100320004E68764512DC122E56D8DFE806F0350B03
:100330004549555555555555555555555555554D91
:10034000510000BFD1F80C9046E000BF4FF6FF729D
:10035000C1F2210296420FDC0022C1F21102964244
:100360001AD00022C1F21202964215D00022C1F228
:100370002102964210D02FE00022C1F222029642C2
:100380000AD00022C1F23102964205D00022C1F209
:100390003202964220D100BF8A684AB1012A14BFB6
:1003A000C0F81480C0F810804FF0080914E000BFB6
:1003B0004FF0040910E000BFCA6802F108090BE021
:1003C0004FF0000908E000BFCA6802F1040903E029
:1003D000CA6802F10C0900BF22460646BAF1080FAE
:1003E00024BF203A043637680F25954027EA0505D3
:1003F00009FA02F22A433260CA79D2067FF582AF47
:1004000041F21803C4F202031A6842F001021A60B2
:100410001A6802F001020192019A40F20042C4F20D
:100420000102A2F57E762AF0030256F802B040F6E9
:100430000002C4F20102904210D040F60042C4F221
:10044000010290423FF422AF41F20002C4F20102E5
:10045000009F904208BF022719E700BF002716E758
:1004600002B0BDE8F08F000040F2B800C2F2000018
:100470000068704740F2000040F2B801C2F200008C
:10048000C2F2000100780A6810440860704700005A
:1004900080B542F20000C4F20200016841F0100190
:1004A0000160032000F07AF80F2000F005F800F05A
:1004B00027F8002080BD000070B540F20006C2F2AF
:1004C000000640F208013278C2F200014FF47A735C
:1004D0000968B3FBF2F20446B1FBF2F1084600F002
:1004E0003DFB0F2C4FF0010508D838B94FF0FF3015
:1004F00021460022002500F025F87460284670BDD2
:1005000082B041F21800C4F202000168022241F0F8
:1005100001010160016801F0010101910199416847
:1005200041F080514160406800F080500090009898
:100530000420C4F20100016862F31A61016002B094
:100540007047000010B54EF60C5CCEF2000CDCF8E3
:100550000030C3F3022E8EF00704042C28BF0424BD
:10056000BEF103034FF0FF3E0EFA04F438BF002340
:10057000A14399400EFA03F39A43114300F00F028E
:1005800000F160430901043A03F564436244002822
:1005900048BF02F10C03197010BD00004EF60C515B
:1005A000CEF200010A684FF6FF031A4060F30A22F8
:1005B00042F0806040F0FD700860704770470000B6
:1005C0002DE9F04381B0002800F0858042F2000858
:1005D000C4F202080446D8F800000D4600F00700F7
:1005E00088420CD2D8F8000020F007002843C8F851
:1005F0000000D8F8000000F00700A8426BD1206886
:1006000041F204098107C4F2020917D5410705D553
:10061000D9F8001041F4E061C9F80010010705D5D0
:10062000D9F8001041F46051C9F80010D9F8001051
:10063000A26821F0F0011143C9F80010C00741D1B0
:10064000D8F8000000F00700A8420CD9D8F8000044
:1006500020F007002843C8F80000D8F8000000F098
:100660000700A84237D12068410707D5D9F8001004
:10067000E26821F4E0611143C9F80010000708D5D1
:10068000D9F80000216920F4605040EAC100C9F89F
:100690000000D9F8002002F00C00082841F20020E8
:1006A000C0F27A0050D141F27443C2F38341C0F6E4
:1006B0000003595CD2033BD440F60010C0F23D0069
:1006C000484341E0606802280AD001282AD159F83D
:1006D000041C890308D4012001B0BDE8F08300BFE9
:1006E00059F8041C8901F6D5D9F8001021F003014E
:1006F0000843C9F80000FFF7B7FE064641F2883705
:10070000D9F80000616800F00C00B0EB810F97D0C1
:10071000FFF7AAFE801BB842F2D9032001B0BDE862
:10072000F08300BF59F8041C8907D4D5DCE700BF6B
:10073000D9F8002041F26243C2F34042C0F6000300
:100740009A5C4843B0FBF2F0D9F8001041F26442E1
:10075000C1F30311C0F60002515C40F2080220FA16
:1007600001F140F20400C2F200000068C2F200028F
:100770001160FFF7A1FE002001B0BDE8F08300008A
:100780004C20C4F2422001210160704710B541F2B3
:100790000804C4F202042068000658BF10BDFFF729
:1007A0000DFF8020A07010BD2DE9F04182B000281F
:1007B00068D00446007841F20006C007C4F2020681
:1007C00025D0706800F00C0004281BD0706800F081
:1007D0000C00082802D17068C00313D46068002898
:1007E00000F06881B0F5A02F00F07C81B0F5803F6B
:1007F00000F07C81306820F480303060306820F474
:10080000802076E13068800301D56068D0B320781D
:10081000800718D5706810F00C0F07D0706800F0D2
:100820000C0008286ED17068C0036BD43068800754
:1008300002D52069012825D13068616920F0F800CF
:1008400040EAC1003060207800071FD420784007BC
:1008500032D4E56995B1706800F00C00082840F0CA
:100860008F80012D0ED07068216A00F480328A4298
:1008700008D1616A00F47010884203D1002002B0F0
:10088000BDE8F081012002B0BDE8F081A069002838
:1008900062D00020C4F242200121C0F88014FFF78A
:1008A000E3FD0546706A800700F18C80FFF7DCFDF0
:1008B000401B0228F6D92AE1F06910F0805808D1CF
:1008C000F06940F08050F061F06900F080500090D5
:1008D000009847F20007C4F200073868C00529D421
:1008E000386840F480703860FFF7BEFD054600BFF1
:1008F0003868C0051ED4FFF7B7FD401B6428F7D940
:1009000005E100BF2069002840F20000C4F2422047
:1009100000F0828001210160FFF7A6FD054600BFBF
:10092000306880073FF588AFFFF79EFD401B022827
:10093000F6D9ECE0E068002800F08080052800F09F
:100940009780012800F09880306A20F00100306222
:10095000306A20F0040092E00020C4F2422000211E
:10096000C0F88014FFF780FD054600BF706A80075D
:100970007FF56CAFFFF778FD401B0228F6D9C6E083
:100980000027C4F2422700203866FFF76DFD022DD4
:1009900005460BD13068800140F1BE80FFF764FD51
:1009A000401B02284FF00300F4D968E7306880014B
:1009B0007FF564AFFFF758FD401B02284FF003009E
:1009C000F4D95CE740F20800C2F20000006844F687
:1009D000D351C1F26201A0FB0101480A019000BF9E
:1009E00000BF0198411E002801913FF42FAF00BFC6
:1009F0000198411E002801913FF428AF00BF0198E3
:100A0000411E002801913FF421AF00BF0198411E13
:100A100000280191E4D119E700210160FFF724FDCE
:100A2000054600BF306880077FF50DAFFFF71CFD5E
:100A3000401B02284FF00300F4D920E7306A20F071
:100A400001003062306A20F004003062FFF70CFDD4
:100A5000054641F2883700BF306A800720D5FFF78E
:100A600003FD401BB8424FF00300F5D907E700BF74
:100A7000306A40F004003062306A40F001003062B9
:100A8000FFF7F2FC054641F2883700BF306A800765
:100A900006D4FFF7E9FC401BB842F7D937E000BFA6
:100AA000B8F1000F7FF4D5AEF06920F08050F0610E
:100AB000CFE600BF306820F480303060306820F42A
:100AC00080203060FFF7D0FC054600BF306880030F
:100AD0007FF59DAEFFF7C8FC401B64284FF0030074
:100AE000F4D9CCE6306840F480203060306840F4BF
:100AF00080303060FFF7B8FC054600BF30688003E7
:100B00003FF585AEFFF7B0FC401B6428F6D9032003
:100B100002B0BDE8F08100BF206AB0F5803F05D18A
:100B20007168A26821F40031114371607168626AD2
:100B300021F4741111430843706001203866FFF7F7
:100B400093FC0446306880013FF598AEFFF78CFCBB
:100B5000001B02284FF00300F4D990E6411E00204C
:100B6000B0EB116F1CBF012070474EF21002CEF2A5
:100B7000000251604EF62351CEF20001F0230B70BB
:100B80000721906011607047B0B590F83C20012AB1
:100B900004BF0220B0BD01F108053CCDD1E900CE73
:100BA00023F47C5322F470521A432EF4F0431A4378
:100BB0002CF4E0431A4324F4C0431A432A43C9697E
:100BC00022F48042036811435964002180F83C10EC
:100BD0000846B0BD10B590F83C20012A4FF0020243
:100BE00033D080F83D200268D2F804E0D2F808C083
:100BF0000C682EF07003234340F2FF74C4F200042B
:100C0000A24253600ADCB2F1804F13D040F200439D
:100C1000C4F200039A420DD011E000BF42F6004337
:100C2000C4F201039A4205D040F60003C4F2000367
:100C30009A4204D149682CF0800319439160012144
:100C4000002280F83D1080F83C20104610BD0000C6
:100C5000002804BF0120704710B5044690F83D00FD
:100C600028B9002084F83C00204600F067F80220F4
:100C700084F83D00206840F2FF730268C4F200036C
:100C800042F6004C9842C4F2010C15DCB0F1804FE2
:100C90001AD040F20041C4F20001884214D09842B8
:100CA00018DCB0F1804F1DD040F20041C4F20001C9
:100CB000884217D01AE000BF604505D040F6000119
:100CC000C4F200018842EAD1A16822F070020A430E
:100CD0009842E6DD604505D040F60001C4F200010F
:100CE000884203D1216922F440720A43A36922F0A9
:100CF0008001D4F804E0E268194360450160C262F3
:100D0000C0F828E002D16169CCF8301001214161BE
:100D1000002084F8461084F83E1084F83F1084F8D0
:100D2000401084F8411084F8421084F8431084F88D
:100D3000441084F8451084F83D1010BD81B000685F
:100D400042F60041C4F20101884201D001B070476F
:100D500041F21800C4F20200016841F40061016030
:100D6000006800F400600090009801B07047000037
:100D700080B590F83C20012A4FF0020200F0BF80BD
:100D800080F83D20D0F800C04FF67772DCF80830CC
:100D900023EA0202CCF808200B683F2B1CDD5F2BF6
:100DA00020DD602B50D0B3F5005F6DD0702B40F08C
:100DB000A080D1E901E3C968DCF8082043EA0E030A
:100DC00022F47F4243EA01211143CCF80810DCF8F9
:100DD000081041F077018AE01F2B29DC63B3102B48
:100DE0002AD086E0402B63D0502B40F08280D1F88F
:100DF00004E0C968DCF82030DCF8202022F0010291
:100E0000CCF82020DCF8182022F0F00242EA011190
:100E100023F00A0242EA0E02CCF81810CCF8202087
:100E2000DCF8081041F0570121F020015FE000BF1D
:100E3000202B01D0302B5CD1DCF8081021F07001A0
:100E4000194341F0070152E0D1F804E0C968DCF829
:100E5000203023F01003CCF82030DCF81830DCF818
:100E6000202023F4704322F0A00243EA013142EA39
:100E70000E12CCF81810CCF82020DCF8081041F045
:100E8000670121F0100132E0D1E901E3C968DCF823
:100E9000082043EA0E0322F47F4243EA0121114372
:100EA000CCF80810DCF8081041F480411FE000BFC6
:100EB000D1F804E0C968DCF82030DCF8202022F00A
:100EC0000102CCF82020DCF8182022F0F00242EADF
:100ED000011123F00A0242EA0E02CCF81810CCF8F5
:100EE0002020DCF8081041F0470121F03001CCF857
:100EF00008100121002280F83D1080F83C201046A7
:100F000080BD000070B586B040F60004C4F2010454
:100F1000006804F5105200219042049102D006B0FE
:100F200070BD00BF41F21800C4F20200016802ADBA
:100F300041F0080101600168022601F008010191F9
:100F40000199016841F0040101600068294600F040
:100F500004000190019804F58060CDE902660596D1
:100F6000FFF774F94FF48070CDE902062046294658
:100F70000596FFF76BF90420C4F20100016841F007
:100F8000E06141F0400121F08001016006B070BDD8
:100F90002DE9F04390F83C30012B04BF0220BDE85E
:100FA000F0834FEAB202032A00F2E980DFE802F0A0
:100FB000023A78B4036842F600461A6AC4F201069F
:100FC00022F001021A621D6A1A465C6852F818CFB4
:100FD000B3428E68D1F800E025F0020545EA060527
:100FE0000CD1CE68D1E9057824F4407425F00C05C5
:100FF00026F004063C43354344EA08042CF073070A
:1010000047EA0E075C609F614F6809695F631D6274
:101010009F6947F008079F619F6927F004079F6158
:10102000AAE000BF036842F600461A6AC4F201064D
:1010300022F010021A621D6A1A46D3F804C052F850
:10104000184FB3428E68D1F800E025F0200545EA3C
:10105000061510D1CE68D1E9058725F0C0096FF0DB
:10106000400505EA06152CF4406647EA080745EAFC
:10107000090546EA870C24F4E64444EA0E27C3F83F
:1010800004C09F614F6809699F631D629F6947F4AF
:1010900000679F619F6927F480679F616BE000BFD5
:1010A000036842F600461A6AC4F2010622F480720E
:1010B0001A621D6A1A46D3F804C052F81CEFB342F4
:1010C0008E680C6825F4007545EA062511D1CE68B6
:1010D000D1E9058725F44069360240F2FF4526EA4A
:1010E00005052CF4405647EA080745EA090546EA93
:1010F000071C2EF073072743C3F804C0DF614F6855
:101100000969DF631D62DF6947F00807DF61DF6996
:1011100027F00407DF612FE0036842F600471A6AF0
:10112000C4F2010722F480521A621A46D3F820C092
:101130005D6852F81C4FD1F800E08E68BB4204D1C4
:101140004F6925F4804545EA87152CF4005747EA96
:10115000063724F4E64646EA0E265D60DE614E68F8
:1011600009691E641F62DF6947F40067DF61DF6998
:1011700027F48067DF6109021368194311600021B9
:1011800080F83C100846BDE8F0830000002804BF4A
:101190000120704710B5044690F83D0028B90020A2
:1011A00084F83C00204600F067F8022084F83D00F7
:1011B000206840F2FF730268C4F2000342F6004C5C
:1011C0009842C4F2010C15DCB0F1804F1AD040F205
:1011D0000041C4F20001884214D0984218DCB0F1FA
:1011E000804F1DD040F20041C4F20001884217D068
:1011F0001AE000BF604505D040F60001C4F20001CE
:101200008842EAD1A16822F070020A439842E6DDE2
:10121000604505D040F60001C4F20001884203D1C8
:10122000216922F440720A43A36922F08001D4F8B4
:1012300004E0E268194360450160C262C0F828E03A
:1012400002D16169CCF8301001214161002084F89D
:10125000461084F83E1084F83F1084F8401084F85B
:10126000411084F8421084F8431084F8441084F844
:10127000451084F83D1010BD70470000FEE70000E7
:10128000FEE70000FFF782FAFEE70000704700006B
:1012900070470000FFF7EEB870470000FEE700005F
:1012A00098B0FFF7F5F800240120CDE90644CDE918
:1012B0000444019005904FF4E0104FF48031022572
:1012C0000A9001A8CDE90214CDE90851FFF76CFAA4
:1012D00020B1EFF3108072B6FEE700BF0F20CDE91A
:1012E0000B054FF48060CDE90E040BA802210D948C
:1012F000FFF766F920B1EFF3108072B6FEE700BF8A
:10130000FFF73EFA41F21800C4F20200016842F60B
:10131000004241F0200101600168C4F2010201F0C5
:1013200020010191019901684FF6FF7341F0080116
:101330000160016801F0080101910199016841F023
:10134000040101600068002100F004000190019890
:1013500040F27000C2F200001791CDE91511CDE9FD
:1013600012110791C0E90021C0E90213C0E904117C
:101370008161FFF76DFC28B1EFF3108072B600BFFA
:10138000FEE700BF4FF48050149040F27000C2F2AC
:10139000000014A9FFF7ECFC20B1EFF3108072B647
:1013A000FEE700BF40F27000C2F20000FFF7EEFE61
:1013B00020B1EFF3108072B6FEE700BF40F270007C
:1013C000C2F2000012A9FFF705FC28B1EFF310806C
:1013D00072B600BFFEE700BF60200B900020CDE991
:1013E0000C00CDE90E00CDE9100040F27000C2F211
:1013F00000000BA90022FFF7CBFD28B1EFF310800E
:1014000072B600BFFEE700BF40F27000C2F20000FB
:101410000BA90822FFF7BCFD20B1EFF3108072B6D4
:10142000FEE700BF00200590CDE90300CDE90100F3
:101430004FF40051089040F270000691C2F2000093
:1014400001A9FFF7A1FB28B1EFF3108072B600BF2E
:10145000FEE700BF40F27000C2F20000FFF752FD4D
:10146000FEE701020000000000000000010203048A
:101470000607080902030405060708090A0B0C0DF4
:101480000E0F1010A814000800000020100000002B
:1014900028010008B814000810000020B006000061
:1014A00044010008000000000100000010000000DE
:0814B0000024F400000000001C
:04000005080000ED02
:00000001FF
